:020000041A00E0
:1000000000800010C106001A2501001A2701001AFD
:100010002901001A2B01001A2D01001A7273FF53D7
:100020000000000000000000000000002F01001A86
:100030003101001A000000003301001A5D49001A66
:100040006701001A6701001A6701001A000000002A
:100050006701001A6701001A6701001A6701001A98
:10006000D54B001A6701001A6701001A6701001AD0
:100070006701001A6701001A6701001A6701001A78
:100080006701001A6701001A6701001A6701001A68
:100090006701001A6701001A6701001A6701001A58
:1000A0006701001A6701001A6701001A6701001A48
:1000B0006701001A6701001A6701001A6701001A38
:1000C0004063001A00000010BC0000004063001AEA
:1000D00000000810000000004063001A000000202B
:1000E000000000004063001A0080002000000000B3
:1000F0004063001A00C0002000000000C000001093
:10010000F0110000000008100000000000000020B6
:1001100000000000008000200000000000C000205F
:1001200000000000FEE7FEE7FEE7FEE7FEE7FEE771
:10013000FEE7FEE7FEE7002393420AD210B450F830
:10014000044B41F8044B04339342F8D35DF8044B5D
:100150007047704700238B4204D2002240F8042BE2
:100160000433F8E77047FEE7FFFFFFFFFFFFFFFFE5
:10017000FFFFFFFFFFFFFFFFFFFFFFFFFFFFFFFF8F
:10018000FFFFFFFFFFFFFFFFFFFFFFFFFFFFFFFF7F
:10019000FFFFFFFFFFFFFFFFFFFFFFFFFFFFFFFF6F
:1001A000FFFFFFFFFFFFFFFFFFFFFFFFFFFFFFFF5F
:1001B000FFFFFFFFFFFFFFFFFFFFFFFFFFFFFFFF4F
:1001C000FFFFFFFFFFFFFFFFFFFFFFFFFFFFFFFF3F
:1001D000FFFFFFFFFFFFFFFFFFFFFFFFFFFFFFFF2F
:1001E000FFFFFFFFFFFFFFFFFFFFFFFFFFFFFFFF1F
:1001F000FFFFFFFFFFFFFFFFFFFFFFFFFFFFFFFF0F
:10020000FFFFFFFFFFFFFFFFFFFFFFFFFFFFFFFFFE
:10021000FFFFFFFFFFFFFFFFFFFFFFFFFFFFFFFFEE
:10022000FFFFFFFFFFFFFFFFFFFFFFFFFFFFFFFFDE
:10023000FFFFFFFFFFFFFFFFFFFFFFFFFFFFFFFFCE
:10024000FFFFFFFFFFFFFFFFFFFFFFFFFFFFFFFFBE
:10025000FFFFFFFFFFFFFFFFFFFFFFFFFFFFFFFFAE
:10026000FFFFFFFFFFFFFFFFFFFFFFFFFFFFFFFF9E
:10027000FFFFFFFFFFFFFFFFFFFFFFFFFFFFFFFF8E
:10028000FFFFFFFFFFFFFFFFFFFFFFFFFFFFFFFF7E
:10029000FFFFFFFFFFFFFFFFFFFFFFFFFFFFFFFF6E
:1002A000FFFFFFFFFFFFFFFFFFFFFFFFFFFFFFFF5E
:1002B000FFFFFFFFFFFFFFFFFFFFFFFFFFFFFFFF4E
:1002C000FFFFFFFFFFFFFFFFFFFFFFFFFFFFFFFF3E
:1002D000FFFFFFFFFFFFFFFFFFFFFFFFFFFFFFFF2E
:1002E000FFFFFFFFFFFFFFFFFFFFFFFFFFFFFFFF1E
:1002F000FFFFFFFFFFFFFFFFFFFFFFFFFFFFFFFF0E
:1003000008B503F0FFF908BD08B504F071FC4FF41F
:10031000E131032004F04CFA4FF41651052004F0AB
:1003200047FA002004F092FA04F000FA0A200021B3
:1003300004F0D6FA0021044804F0B6FA03F07EF97E
:1003400000F06EF9FCE700BF0103001A08B50021B8
:100350002C2004F009FC0021292004F005FC04F005
:10036000E3F908BD10B50024094B1C70094B1C7043
:10037000094B1C700121282004F0F6FB4FF47A7021
:10038000002104F06FFC2146282004F0EDFB10BD95
:1003900008110010E8090010740F001010B50121B9
:1003A000094B19700024094B1C70094B1C70292043
:1003B00004F0DAFB4FF47A70002104F053FC21467C
:1003C000292004F0D1FB10BD08110010E80900102D
:1003D000740F001008B50D4B1B7813B90C4A01219E
:1003E0001170012B0DD00121292004F0BDFB4FF429
:1003F000FA70002104F036FC0021292004F0B4FB3F
:1004000008BD034B01221A70EDE700BF0811001070
:10041000E809001008B500212C2004F0A5FB0A4BC8
:100420001B78012B00D008BD0121084B1970292031
:1004300004F09AFB4FF47A70002104F013FC0021C1
:10044000292004F091FBEEE7E8090010740F00107A
:1004500008B501212A2004F087FB4FF47A700021AF
:1004600004F000FC00212A2004F07EFB08BDFFFF01
:10047000F0B585B001212C2004F076FB4FF47A70A2
:10048000002104F0EFFB01212C2004F06DFB444817
:1004900004F05EF9434B1B7893B1424B1B78012B60
:1004A0001ED000224049414802F0EAF83222404979
:1004B000404802F00DF918B33F4B00221A7032E0A9
:1004C000374A138851799079D47903940290019135
:1004D00000939378D2783949354804F0CFFFDCE7B0
:1004E0002F4A138851799079D4790394029001911D
:1004F00000939378D27832492D4804F0BFFFD0E7BB
:100500002C4C304B2B223049204602F038FA204642
:1005100002F002FCD0E70121282004F025FB264A46
:10052000137801331370244B1B78632B35D8322298
:100530001F49204802F0CCF80028ECD11E4B1A7855
:10054000224F234B53F822300293224B53F8223090
:100550000193214B53F822300093204B53F8223063
:100560001F4951F822201F49384604F087FFC2B2C4
:100570001D4D2A70134C0F4E23463946304602F06B
:10058000FEF9304602F0C8FB2A7823689A42C6D1A9
:100590000121292004F0E8FAC1E705B0F0BD00BF51
:1005A000D40D0010081100101459001AB0070010E3
:1005B0007C0B001060050010C0000010B058001A3D
:1005C000E058001A700F00101C59001A700D00102E
:1005D000EC090010E00D00100C110010780F001055
:1005E000E00B00104859001AC100001070B4039EBF
:1005F0000024632C11D8642505FB04F540F8245031
:10060000A51C41F82450650042F8245043F82450BA
:10061000251D46F824500134EBE770BC7047FFFFFE
:1006200000B583B001E0FFF79DFE1E49052004F0F0
:10063000FDF8002832D01B4B1B78613B062BF4D809
:1006400001A252F823F000BF2706001A6506001A1F
:100650006B06001A7106001A8706001A9106001A26
:100660009706001AFFF79AFEDFE7FFF7B3FEDCE715
:100670000D4B00930D4B0E4A0E490F48FFF7B6FF86
:10068000FFF7C8FED1E70A490A48FFF7E1FECCE7C9
:10069000FFF7EEFEC9E7FFF759FEC6E703B05DF8C6
:1006A00004FB00BFDC0D0010EC090010E00D001091
:1006B0000C110010780F0010E00B00107047FFFFC6
:1006C00010B572B6194B1A4A1A600433194A1A60E7
:1006D000002305E0184A4FF0FF3142F823100133A0
:1006E000072BF7D962B6154B07E003F10C049A68A3
:1006F00059681868FFF71FFD2346114A9342F4D347
:1007000006E01C46596854F8080BFFF723FD234602
:100710000C4A9342F5D303F0DDFF04F041FCFFF7F0
:10072000CDFFFFF7F1FD30BFFDE700BF0031054011
:100730000010DF10FFF7DF0180E200E0C000001AC8
:10074000FC00001A2401001A70477047054B1B6813
:1007500023B1044B1868014419607047014B024AE9
:100760001A60F6E7C4000010B0120010427800785A
:1007700040EA02207047C278837843EA0222437835
:1007800043EA0223007840EA0320704730B4C2797C
:10079000847944EA0221447944EA01210B0E047968
:1007A00044EA01211B0243EA1163C47844EA0121AF
:1007B0001B0243EA1163847844EA01211B0243EAE5
:1007C0001163447844EA01211B02047844EA0120C1
:1007D00043EA116130BC70470170090A41707047EB
:1007E0000170C1F307234370C1F307438370090EFF
:1007F000C17070470270C2F307214170C2F3074114
:100800008170120EC2700371C3F307224271C3F3E9
:10081000074282711B0EC371704713462AB111F84B
:10082000012B00F8012B013BF9D1704700F8011BA7
:10083000013AFBD1704710B410F8013B11F8014B9D
:100840001B1B013A01D0002BF6D018465DF8044B73
:10085000704703781BB18B4201D00130F9E718468D
:10086000704700207047FFFF30B40546036813F857
:10087000012B104612F0800F02D12B6030BC704764
:1008800002F0E001C0290BD002F0F001E02934D0E1
:1008900002F0F801F02936D102F00700032102E04E
:1008A00002F01F0001211A4612F8013B03F0C004B8
:1008B000802C2BD103F03F0343EA8010134601390B
:1008C000F1D17F2825D9A0F55843B3F5006F23D384
:1008D000B0F5881F23D2B0F5803F12D3A0F5803346
:1008E000104901EA8311C0F3090341EA030040F013
:1008F000584040F45C401346BFE702F00F0002216D
:10090000D1E71346B9E74FF0FF30B7E74FF0FF30BC
:10091000B4E74FF0FF30B1E74FF0FF30AEE74FF0F4
:10092000FF30ABE70000FF030239C369023B8B4293
:1009300004D9036B408901FB0030704700207047E9
:1009400070B506460D4601F11A00FFF70FFF337828
:10095000032B00D070BD044605F11400FFF706FF1D
:1009600044EA0040F6E770B506460C46154691B2DB
:1009700004F11A00FFF730FF3378032B00D070BD6D
:10098000290C04F11400FFF727FFF8E72DE9F041E7
:1009900080460F4601F11A00FFF7E8FE50BB3D7894
:1009A00025F04005013D05EB450305EB83050126D8
:1009B000002404E04FF6FF73984220D101340C2C40
:1009C0000DD8124B185D3844FFF7D0FE002EF1D041
:1009D000FE2D12D828F8150006460135EEE73B78C3
:1009E00013F0400F0DD0FE2D0DD8002328F8153040
:1009F000012000E00020BDE8F0810020FBE700209E
:100A0000F9E70120F7E70020F5E700BFE459001AF5
:100A10002DE9F84380460F4691464B730F23CB7266
:100A200000240C73214607F11A00FFF7D5FE09F1E7
:100A3000FF3606EB460306EB8306254602E001344B
:100A40000C2C11D84FF6FF739D4202D038F8165087
:100A500001360C4B185D29463844FFF7BDFE002DCA
:100A6000EDD14FF6FF75EAE74FF6FF739D4202D0D6
:100A700038F816300BB949F0400987F80090BDE806
:100A8000F88300BFE459001AF0B583B00646154656
:100A90001C460B22FFF7C1FE052C11D807271FE0CB
:100AA00001320F2A0CD803F0010101EB44045B086A
:100AB00014F4803FF4D084F4883484F02104EFE708
:100AC0002B88002BEAD002350022EAE77D1E02AA1D
:100AD0003A4402F8083C23090F2C0AD92F461C4639
:100AE00004F00F0202F13003392BEFD902F1370382
:100AF000ECE77E2202AB2B4403F8082C002400E034
:100B00000134AC4211D2305D20280ED0FFF7A9FE8F
:100B10000028F5D0BB1EA34207D00134F0E7202205
:100B2000631C3255072B08D81C46072DF7D802AB9B
:100B30002B4413F8082C0135F2E703B0F0BD0B216C
:100B40000022D30143EA520310F8012B52FA83F337
:100B5000DAB20139F5D11046704730B40546417814
:100B6000013149010020034607E0420802EBC03290
:100B7000EC5C14FA82F290B201338B4203D2022B66
:100B8000F3D10133F8E730BC704738B505460C4661
:100B900000693430FFF7EFFDA06028693830FFF7B7
:100BA000F5FDC4E904012B6993F8213003F0020339
:100BB000E3710023E36138BDF0B40768002F4ED025
:100BC00039460B4613F8012B1F2A02D919463A2A37
:100BD000F7D13A2A04D04FF0000C6046F0BC7047C1
:100BE00097F800C0ACF13002D2B2092A08D8BA1C7A
:100BF0009A4202D04FF0000C04E0ACF1300C26E039
:100C00004FF0000C174A52F82C103D4603E0B2B1E9
:100C10003546944213D111F8012B2E4616F8014B9C
:100C2000A2F16105EDB2192D01D8203AD2B2A4F19A
:100C30006105EDB2192DEAD8203CE4B2E7E70AB924
:100C4000B34204D00CF1010CBCF1010FDADDBCF1B0
:100C5000010F02DD4FF0FF3CBFE70360BDE74FF03F
:100C6000FF3CBAE7F459001A38B50D46A8B104465E
:100C70000368ABB11A78AAB18188DA88914203D0AF
:100C8000092000232B6038BD587802F03FFD10F09A
:100C9000010F0AD123680020F4E709200023F1E7BF
:100CA0000920EFE709200023ECE709200023E9E70A
:100CB00038B5C3780BB9002038BD044600F13805BB
:100CC0000123426B2946407802F03EFDA0B9002383
:100CD000E370616BA36ACB1A226A93420ED2A378A7
:100CE000022B01D00020E7E701230A44294660785F
:100CF00002F02AFD0020DFE70120DDE70020DBE72E
:100D000070B5436B8B4202D10026304670BD04465D
:100D10000D46FFF7CDFF06460028F6D101232A46EF
:100D200004F13801607802F0FFFC10B101264FF0A9
:100D3000FF356563E9E7FFFF10B504460023C37084
:100D40004FF0FF334363FFF7DBFF40BB04F2362075
:100D5000FFF70CFD4AF65523984222D10B22154984
:100D600004F13800FFF767FDE8B194F83830E92B5B
:100D700005D0EB2B03D0E82B01D0022012E0032298
:100D80000D4904F16E00FFF756FD70B105220B49C5
:100D900004F18A00FFF74FFD48B1022002E0042071
:100DA00000E0032010BD0120FCE70020FAE700204E
:100DB000F8E700BFFC59001A085A001A0C5A001A2A
:100DC0002DE9F04784B00D46174600230B60FFF76E
:100DD000F3FE061EC0F2FE81BD4B53F82640002CE8
:100DE00000F0FC812C6007F0FE07237873B1607877
:100DF00002F08CFC10F0010F08D1002F00F0F08100
:100E000010F0040F40F0EE810020E4E10023237095
:100E1000B04B13F81600607002F07FFC10F0010F69
:100E200040F0E2811FB110F0040F40F0DF8100219B
:100E30002046FFF781FF022800F09280012872D936
:100E40000027042800F0D481012800F2D38100F0AB
:100E50001D8104F14300FFF789FCB0F5007F40F0ED
:100E6000DF8104F14E00FFF781FC804620B904F1D8
:100E70005C00FFF780FC8046C4F8208094F848208E
:100E8000A270531EDBB2012B00F2CC8108FB02F5ED
:100E900094F845606681002E00F0C681731E1E42E4
:100EA00040F0C48104F14900FFF760FC81462081D5
:100EB00010F00F0F40F0BC8104F14B00FFF756FC1F
:100EC000824620B904F15800FFF755FC824604F130
:100ED0004600FFF74BFC8446002800F0AB81431925
:100EE00003EB19139A45C0F0A781AAEB0302B2FBEA
:100EF000F6F1B242C0F0A281774A914240F2E58019
:100F00004FF0000A4FF6F572914201D84FF0020AF5
:100F100040F6F572914240F2E380BAF1000F40F0E2
:100F2000E1800D2057E16B4B03EB46035B78CBB9B7
:100F3000002786E7002004AB03EB850343F8100C81
:100F40000135032D10D804F138002B0103F5DF73B0
:100F500018440379002BEDD00830FFF70CFCEAE7CA
:100F60000025EEE70025ECE75A4B03EB46035D78DE
:100F70009DB1013D11E039462046FFF7DDFE554B9E
:100F800003EB46035B78002B7FF45BAF01287FF611
:100F900058AF0135032D3FF654AF04AB03EB850387
:100FA00053F8107C002FE6D10320E8E701333F2BF4
:100FB00004D8E21892F83820002AF7D03F2B40F2EC
:100FC0001B8104F1A000FFF7D1FBB0F5807F40F05A
:100FD000158194F8A430092B40F0128104F18000AF
:100FE000FFF7D4FB10EB070841F10009B9F1010F3D
:100FF00008BFB8F1000F80F0058104F18C00FFF705
:10100000BAFB206294F8A630A370012B40F0FC805C
:1010100094F8A53001259D40ADB26581002D00F00A
:10102000F58004F19400FFF7A6FB82462B4B984213
:1010300000F2EE80831CE361676204F19000FFF729
:101040009AFBC619266304F18800FFF794FB384425
:10105000A0620AFB05F20021921941F100039945B3
:1010600008BF9045C0F0D68004F19800FFF783FBDD
:101070000146E0622046FFF757FC01462046FFF795
:101080003FFE002840F0C880002502E00B238EE7D9
:101090002035B5F5007F0DD2631993F83830812BD8
:1010A000F6D104F1380305F114001844FFF763FB8F
:1010B0000228EDD1B5F5007F00F0B0804FF0FF338E
:1010C000A36163614FF0040A35E04FF0030A19E7AA
:1010D000280300100C000010F5FFFF0FFDFFFF7F3D
:1010E0004FF0010A8E1CE66167620CEB0702A262F8
:1010F0003B442363BAF1030F2BD0B9F1000F00F08A
:10110000A3802A44E262BAF1020F32D006EB460312
:1011100006F0010606EB530606F2FF13B8EB532F59
:10112000C0F094804FF0FF33A3616361802323718B
:10113000BAF1030F1FD084F800A0454A1388013389
:101140009BB21380E380434BE360434B2361002059
:1011500041E004F16200FFF709FB002870D1B9F10A
:10116000000F6FD104F16400FFF705FBE062B600E9
:10117000D2E77600D0E704F16800FFF7F7FA01281C
:10118000D9D1791C2046FFF7BBFD0028D3D100231D
:10119000237104F23620FFF7E9FA4AF65523984204
:1011A000C9D104F13800FFF7E6FA2C4B9842C2D1BE
:1011B00004F50770FFF7DFFA294B9842BBD104F51D
:1011C0000870FFF7D8FAA06104F50970FFF7D3FAA9
:1011D0006061B0E70B2004B0BDE8F0870C20FAE7AF
:1011E0000020F8E70A20F6E70320F4E70A20F2E7F8
:1011F0000120F0E70D20EEE70D20ECE70D20EAE7F7
:101200000D20E8E70D20E6E70D20E4E70D20E2E7FA
:101210000D20E0E70D20DEE70120DCE70D20DAE716
:101220000D20D8E70D20D6E70D20D4E70D20D2E71A
:101230000D20D0E70D20CEE70D20CCE70D20CAE72A
:101240000D20C8E70D20C6E70D20C4E70D20C2E73A
:101250003003001034030010C800001052526141E6
:10126000727241612DE9F843054691468F1EC369AC
:10127000023BBB4200D80027B8463C460026296BFB
:1012800001EB14312846FFF73BFD40BBC4F3C80017
:1012900004F0070201239340DBB209E0A0460026D8
:1012A000A7421FD023B90130B0F5007FE7D2012358
:1012B0002A1892F838201A405B00DBB20134E96941
:1012C0000239A14203D800244FF400702346002ABB
:1012D000E4D101364E45E3D108F1020003E04FF0BE
:1012E000FF3000E00020BDE8F8832DE9F843064612
:1012F000174698468C1E016B01EB1431C4F3C805E8
:1013000004F00704012303FA04F4E4B201F1010933
:101310003046FFF7F5FC014610B101211EE0012423
:10132000731993F83830234214BF0122002242453A
:1013300013D07219634082F838300123F370013FF3
:101340000CD09C4014F0FF04EAD11D441C46B5F5B6
:10135000007FE4D349460025D8E702210846BDE8CE
:10136000F8832DE9F047012940F2828005460C46BA
:101370001746C3698B427FD90378013B032B7DD885
:10138000DFE803F00240535301EB5108816A01EB9F
:101390005821FFF7B5FC064600286AD105F1380A46
:1013A00008F10109C8F3080814F001041FD01AF964
:1013B000083003F00F033A0102F47F621343DBB2FB
:1013C0000AF808300123EB70A96A01EB592128467D
:1013D000FFF796FC064600284BD1C9F3080944B133
:1013E000C7F307170AF809700123EB7041E0FBB25D
:1013F000E6E71AF9093023F00F03C7F303271F4369
:10140000FFB2EFE7816A01EB1421FFF779FC064692
:1014100078BB05F13800640004F4FF74B9B22044CD
:10142000FFF7DAF90123EB7023E0816A01EBD411B5
:10143000FFF766FC0646E0B92B78042B0CD027F0AA
:10144000704705F13800A30003F4FE731844FFF75A
:1014500092F900F07040074305F13800A40004F44D
:10146000FE7439462044FFF7BBF90123EB7000E01E
:1014700002263046BDE8F0870226FAE70226F8E7A2
:1014800070B504460D46164607E03246FFF769FF81
:10149000034658B9E369013BE361E36933B120686E
:1014A000EA1A511C012BF0D90232EFE7184670BD41
:1014B000C379032B02D000231846704770B5064647
:1014C000816884694CB14D1C2A463068FFF749FF9A
:1014D000034620B9013C2946F4E70023F37118467E
:1014E00070BDF8B50568012940F29980EB698B421F
:1014F00040F297800C462B78013B032B00F293803F
:10150000DFE803F0022B3C4F01EB5106A96A01EB27
:1015100056212846FFF7F4FB10B14FF0FF307FE073
:10152000771CC6F308062E4496F83860A96A01EBCA
:1015300057212846FFF7E4FB002876D1C7F30800BF
:10154000284490F8380046EA002014F0010F01D03A
:10155000000965E0C0F30B0062E0A96A01EB142109
:101560002846FFF7CDFB002862D105F13800640062
:1015700004F4FF742044FFF7F9F851E0A96A01EB85
:10158000D4112846FFF7BCFB002854D105F13800E0
:10159000A40004F4FE742044FFF7EDF820F070403E
:1015A0003EE0D0E9046756EA070301D0836813B927
:1015B000C379002B42D18368E21A16F1FF3347F159
:1015C000FF315B0A43EAC1536989B3FBF1F3C17987
:1015D000022908D003290BD0022934D0C36963B192
:1015E0006FF000401CE09A42F4D829D0601C17E04C
:1015F00083699342F0D9601C12E0A96A01EBD4110F
:101600002846FFF77DFB00BB05F13800A30003F47B
:10161000FE731844FFF7AFF820F0004000E001200F
:10162000F8BD0120FCE70120FAE74FF0FF30F7E7B3
:101630004FF0FF30F4E74FF0FF30F1E70120EFE724
:101640006FF00040ECE70120EAE74FF0FF30E7E7FA
:101650002DE9F04106460D4607683B78042B24D05F
:101660004FF40013AB4241D915F01F0F40D1356341
:10167000B4682CB93B78022B02D9FC6A0023F371C1
:10168000B4B93B89B3EB551F34D9FB6AB3637463B8
:10169000B36BABB303EB5523B3633837C5F308051E
:1016A0003D44F5630020BDE8F0814FF08053D9E759
:1016B000B7F80A804FEA482801E0A5EB0805454540
:1016C0000ED321463046FFF70CFF0446B0F1FF3F32
:1016D00012D0012812D9FB698342EED80220E2E73A
:1016E00021463846FFF720F9B063D0E70220DAE759
:1016F0000220D8E70220D6E70120D4E70220D2E773
:101700000220D0E72DE9F84380460768894631B9C1
:101710007E69A6B1FB69B34212D8012610E0FFF73B
:10172000E0FE0546012840F2C680B0F1FF3F00F020
:10173000C380FB69834200F2BF804E4600E0012671
:10174000BD69002D00F0B8803B78042B03D04E45D6
:1017500055D0344695E0012231463846FFF782FDE8
:101760000546431E13F1030F00F2A68001231A461B
:1017700001463846FFF7B9FD0346022800F09F8076
:10178000012800F09E80B9F1000F1ED1022288F8D6
:10179000072098F80720022A00F0828009F1010250
:1017A000AA4222D0D8F81C3013B90123C8F81C3043
:1017B0002A4649464046FFF763FE0346002871D19A
:1017C0000122C8F81C202C463EE098F80720022A87
:1017D000DFD1721CAA42DCD0D8F80820B21AC8F8AF
:1017E0001820032288F80720D3E7D8F81C2022B15C
:1017F0000132C8F81C202C4626E00222F9E7741CAE
:10180000FB69A34200D8022421464046FFF769FE47
:101810000546012850D0B0F1FF3F4DD038B17B696B
:10182000012B96D9FA699A4293D91E4691E7002C6A
:101830008FD04FF0FF3221463846FFF792FD034626
:1018400010B9B9F1000F24D173BB7C61BA69FB698F
:10185000023B9A4201D8013ABA613B7943F0010355
:101860003B71254628E021464046FFF73AFE0546F3
:101870000028DED001281FD0B0F1FF3F1CD0B442B9
:1018800024D00134FB69A342EDD8012E1CD90224D7
:10189000E9E7224649463846FFF763FD0346D3E7AA
:1018A0002C46D1E72C46CFE7012B01D0012503E0E0
:1018B0004FF0FF3500E001252846BDE8F8830125FB
:1018C000FAE74FF0FF35F7E70025F5E70025F3E7E6
:1018D0002DE9F8430468012940F2878007460E4647
:1018E0009146E3698B4240F2828072B12378042BE7
:1018F00002D1C379022B08D04FF0FF32494620466F
:10190000FFF72FFD0346002872D1B04612E00022F7
:1019100031462046FFF725FD0346C8B168E0731C39
:10192000AB4203D02378042B1ED0A846E3692E4691
:10193000AB4225D931463846FFF7D3FD0546F8B10D
:10194000012858D0B0F1FF3F57D02378042BDED1C7
:10195000A269E369023B9A42E1D20132A261237992
:1019600043F001032371DAE7A6EB080200230132FA
:1019700041462046FFF7B9FC0346C8BBA846D5E759
:101980002378042B01D0002332E0B9F1000F02D1FB
:101990000023FB712CE0FB79C3B9BC684C450DD02A
:1019A00021463846FFF79DFD012828D9B0F1FF3FB9
:1019B00027D0631C834201D11C46EFE74C4501D080
:1019C000002315E00223FB71002311E0032B01D05B
:1019D00000230DE0BB684B4515D8BA6913444B454D
:1019E00013D30223FB71002302E0022300E0022351
:1019F0001846BDE8F8830223FAE70123F8E702233B
:101A0000F6E70123F4E70023F2E70023F0E7F8B557
:101A100005460C46FFF74CF908B10120F8BD2146F8
:101A20002846FEF781FF0746686305F138064FF444
:101A3000007200213046FEF7F9FE002400E0013478
:101A40006B89A34207D90123E2193146687801F076
:101A50007BFE0028F3D06889001B18BF0120DDE75A
:101A60002DE9F8430668056B836B002B56D02035B3
:101A70003278042A18D04FF40012AA4250D988466E
:101A80000446C5F308073FB901338363416B91B93D
:101A90003389B3EB551F0AD9256306F138033B445C
:101AA000E3630020BDE8F8834FF08052E5E70023B0
:101AB00083630420F6E77389013B13EA5523EBD1D6
:101AC000FFF70FFD814601282CD9B0F1FF3F2BD045
:101AD000F369834216D8B8F1000F1BD0616B204622
:101AE000FFF710FE814608B3012821D0B0F1FF3F77
:101AF00020D001463046FFF78AFFE8B9E37943F08A
:101B00000403E371C4F8349049463046FEF70CFFF5
:101B1000A063C1E70023A3630420C3E70420C1E757
:101B20000420BFE70220BDE70120BBE70720B9E79B
:101B30000220B7E70120B5E70120B3E72DE9F04126
:101B4000044600680769A16BFFF7DAF8054620B97B
:101B5000E16B0B78852B03D002252846BDE8F08188
:101B600020223846FEF759FE7E7801367601A6F12E
:101B70006003B3F5007F59D800212046FFF770FFBE
:101B8000054604280ED00028E7D1A16B2068FFF796
:101B9000B7F805460028E0D1E16B0B78C02B03D0E5
:101BA0000225DAE70225D8E72022B818FEF735FE2D
:101BB00097F823302C33204AA2FB0323DB08B6EB33
:101BC000431F35D34FF0400805E00225C5E708F173
:101BD000200846451CD900212046FFF741FF054655
:101BE0000428F2D00028B8D1A16B2068FFF788F84C
:101BF00005460028B1D1E16B0B78C12B1AD1B8F59D
:101C0000187FE4D2202207EB0800FEF706FEDEE78D
:101C1000B8F5187FA1D83846FEF79FFF0446B81CD8
:101C2000FEF7A4FD844298D0022596E7022594E7AA
:101C3000022592E7022590E78988888810B5044636
:101C40000B6803600B6A836091F82430C3714B6AA0
:101C500023F0FF03002203614261C261896AC1640B
:101C6000FFF7F6FC034608B1184610BD2046FFF703
:101C700065FF0346F8E72DE9F84304468846066801
:101C80004FF0FF094F46042508E0852B28D000219E
:101C90002046FFF7E5FE054600285BD1A16B002931
:101CA00058D03046FFF72CF80546002852D1E16B9A
:101CB0000B78002B4DD03278042AE6D0CA7A02F095
:101CC0003F02A271E52B3ED02E2B3ED022F0200009
:101CD000082814BF0020012040450ED0FF27D6E77A
:101CE000236BE3642046FFF729FF054690BB336969
:101CF0001B7903F03F03A3712CE00F2A19D113F0D5
:101D0000400F06D091F80D9003F0BF03226BE26400
:101D10001F46BB4201D0FF27B9E74B7B4B4501D0A3
:101D2000FF27B4E7F068FEF731FE80B1013FFFB254
:101D3000ADE727B90846FEF702FF48450AD04FF045
:101D4000FF33E36406E0FF27A1E7FF279FE7FF27B4
:101D50009DE704250DB10023A3632846BDE8F88361
:101D6000F8B504460F4606680021FFF771FC0246ED
:101D700030BB00250EE0E36B93F90030DB43DB0F53
:101D8000E3B10135BD421BD001212046FFF768FEBB
:101D90000246A8B9A16B3046FEF7B2FF024678B9F9
:101DA0003378042BE7D0E36B1B78E52B02D01BB90B
:101DB0000123E5E70123E3E70023E1E70025E3E76B
:101DC000042A01D01046F8BD0722FBE7F8B5044607
:101DD00003681E693046FEF7C0FE0146B01CFEF7E0
:101DE000FBFC77780137E16C2046FFF731FC0546B4
:101DF000B5B9A16B2068FEF783FF054680B92022A4
:101E00003146E06BFEF709FD23680122DA70013FDD
:101E100006D0203600212046FFF722FE0546E7E7E0
:101E2000022D28BF0225E8B2F8BDFFFF2DE9F04FD3
:101E300085B081460F460B6803930368DD68002474
:101E40000EE086B21F2E24D92F2E22D05C2E20D059
:101E50007F2E14D9FE2C00F2018125F81460013484
:101E600003A8FEF701FDB0F1FF3F00F0F580B0F5EB
:101E7000803FE6D3030C25F814300134E1E7314606
:101E80007848FEF7E6FC0028E4D006208FE0013316
:101E90000393039B1A782F2AF9D05C2AF7D03B6072
:101EA0001F2E01D8042702E0002700E0013C44B1C6
:101EB00004F10043013B35F81330202BF6D02E2BD4
:101EC000F4D0002325F81430002C00F0C9801E4601
:101ED00035F81630202B01D10136F9E70EB92E2B3B
:101EE00003D147F0030700E0013C34B104F10043A3
:101EF000013B35F813302E2BF6D10B22202109F1AE
:101F00004000FEF793FC4FF0080B002301939A4624
:101F100006F1010835F8166046B3202E19D02E2E92
:101F200015D0019B5B4518D2444516D07F2E4ED864
:101F3000FF2E62D90BF1FF33019A934257D90199D1
:101F40004B1CC6F30722494481F840205AE044451F
:101F5000E7D047F003074646DAE7BBF10B0F29D07D
:101F6000444501D047F00307444526D299F8403054
:101F7000E52B68D0BBF1080F69D00AF00C030C2BDD
:101F800003D00AF00303032B01D147F0020717F037
:101F9000020F09D11AF0010F01D047F010071AF013
:101FA000040F01D047F0080789F84B70002005B0F6
:101FB000BDE8F08F47F00307D8E74FEA8A0A5FFAD7
:101FC0008AFA26464FF00B0B08230193A0E747F04F
:101FD000020740F25231304600F0B2FE064610F0E1
:101FE000800FA5D000F07F061F4B9E5DA0E747F055
:101FF00003074646CDF804B08AE756B947F0030711
:10200000019B5F265A1C01924B4483F84060464670
:102010007EE731461548FEF71CFC0028EED1A6F1FC
:1020200041039BB2192B01D84AF0020AA6F16103C1
:102030009BB2192B05D84AF0010A203EB6B2019B8B
:10204000E0E7019BDEE7052389F8403092E74FEA9D
:102050008A0A5FFA8AFA90E70620A8E70620A6E730
:102060000620A4E7145A001A6459001A205A001ACC
:1020700038B50546002435F8020B88B100F080FE23
:1020800080B2630803EBC434C3B213FA84F4A3B27E
:102090005C0804EBC334000A10FA84F4A4B2EAE743
:1020A000204638BD2DE9F8430746884640220021E6
:1020B000FEF7BCFB85233B70C02387F82030012549
:1020C0000026B146402417E029463819FEF784FB64
:1020D000023414F01F0F08D0002DF5D038F8165038
:1020E000002DF1D00136F6B2EEE709F10103DBB2C3
:1020F00038F816203AB19946631CC1223A5500229D
:10210000FA540234E8E787F8236009F1020987F8F6
:1021100001904046FFF7ACFF014607F12400FEF7AF
:102120005BFBBDE8F883FFFF2DE9F0478146884659
:1021300001F11A00FEF71AFBB8BB98F8005005F041
:102140003F05013D05EB450305EB83050127002411
:1021500006E000202AE04FF6FF73984228D10134B0
:102160000C2C17D8164B185D4044FEF7FFFA0646B4
:10217000002FF0D0FE2DECD800F002FE074605F14E
:10218000010A39F8150000F0FBFD8742E1D137461E
:102190005546E4E798F8003013F0400F0AD05FB1DD
:1021A00039F8153053B9012000E00020BDE8F08770
:1021B0000020FBE70120F9E70120F7E70020F5E721
:1021C000E459001A2DE9F84F044607680021FFF78B
:1021D0003FFA0646002840F0AB803B78042B06D03F
:1021E0004FF0FF33E3644FF0FF09C84646E0F8685C
:1021F000FFF73EFF834620E038694044FEF7B6FA19
:1022000000F0BEFD8246FB6833F8190000F0B8FD0F
:1022100082450CD1013DEDB208F1020809F1010936
:102220002DB118F01F0FE7D108F10208E4E725B936
:10223000FB6833F81930002B7AD000212046FFF7D5
:102240001AFD0646002873D13D6905F12400FEF70A
:102250008DFA5845F1D195F823504FF000094FF011
:102260004008DDE74FF0FF33E3644FF0FF08002143
:102270002046FFF7F5FB0646002859D1A16B3846EA
:10228000FEF73EFD0646002852D1E56B2B78002B69
:102290004DD0E97A01F03F02A271E52BE2D011F0B6
:1022A000080F01D00F2ADDD10F2A19D0B8F1000F85
:1022B00004D12846FEF743FC484539D094F84B300A
:1022C00013F0010F06D10B2204F140012846FEF75E
:1022D000B2FA68B34FF0FF33E3644FF0FF08C6E78C
:1022E00094F84B2012F0400FC1D113F0400F06D0EC
:1022F00095F80D9003F0BF03226BE26498464345C6
:1023000002D04FF0FF08B2E76B7B4B4502D04FF095
:10231000FF08ACE72946F868FFF706FF20B108F18F
:10232000FF385FFA88F8A2E74FF0FF089FE704261E
:102330003046BDE8F88F30B583B00446019105689A
:1023400001E001330193019B1A782F2AF9D05C2A0E
:10235000F7D00022A260E2611B781F2B1FD88023D8
:1023600084F84B3011462046FFF772F903461846B1
:1023700003B030BD0428FAD112F0040FF7D10523C1
:10238000F5E7A3682362236923F0FF03E27913438F
:102390006362E36CA36221462846FEF7F6FB01A9BF
:1023A0002046FFF743FD03460028E0D12046FFF713
:1023B00009FF94F84B2003460028DBD112F0040FEC
:1023C000D5D1A37913F0100F0DD02B78042BD8D0D2
:1023D00005F13801236BC3F3080319442846FEF7BF
:1023E000AFFAA060DBE70523C1E7FFFF2DE9F0436B
:1023F00099B0056890F84B3013F0A00F40F0ED80D5
:102400000024EB6833F814300BB10134F9E70646C9
:102410002B78042B11D000F140070C22394615A867
:10242000FEF7FBF99DF85F3013F0010F79D04023E0
:1024300086F84B304FF001085AE00E346B4BA3FB8B
:102440000434E408A11CFFF78BFC814600287ED1F0
:10245000336B04F100640134A3EB4414F464F379A6
:1024600013F0040F13D023F00403F3713046FFF789
:102470001FF808B181466AE04FF0FF32716B3046B9
:10248000FEF7FEFF002840F0AB80B36823B9E9688F
:102490002869FFF707FE5AE031466846FFF7CEFB92
:1024A000034608B1994652E069894902D6E90423F6
:1024B000571843F10008C6E9047828693A464346AC
:1024C0003830FEF797F92869D6E904232830FEF75B
:1024D00091F9F3792A6943F0010382F821306846C3
:1024E000FFF774FC03460028D1D0DBE708F10108B0
:1024F000B8F1630F0BD84346EA6815A93846FEF7D2
:10250000C3FA3046FFF75EFE81460028EED0B8F1F0
:10251000640F67D0B9F1040F19D19DF85F3086F8C8
:102520004B309DF85F3013F0020F14D00C34304B59
:10253000A3FB0434A408013421463046FFF710FC05
:10254000814608B9013C08D1B9F1000F2BD04846AB
:1025500019B0BDE8F0830124EEE7316BA1EB441123
:102560003046FFF775F881460028EDD13846FEF772
:10257000E6FA8046B16B2846FEF7C2FB814600288A
:10258000E2D14346E2B2F16BE868FEF741FA01237B
:10259000EB7000213046FFF763FA81460028D3D163
:1025A000013CE7D1D0E7B16B2846FEF7A9FB814695
:1025B0000028CCD120220021F06BFEF737F90B2246
:1025C0003946F06BFEF729F996F84B30F26B03F0C1
:1025D000180313730123EB70B9E74FF00609B6E750
:1025E0008146B4E74FF00709B1E700BF89888888C2
:1025F0004FECC44E70B50446FEF75AFB054648B989
:102600002378032B08D000221146607801F0ACF843
:1026100000B10125284670BD2379012BF3D104F1C7
:1026200038064FF4007200213046FEF7FFF84AF6F4
:10263000552104F23620FEF7CFF80F493046FEF759
:10264000CFF80E4904F50770FEF7CAF8A16904F542
:102650000870FEF7C5F8616904F50970FEF7C0F867
:10266000626A0132626301233146607801F06CF8DE
:1026700000232371C7E700BF52526141727241616A
:1026800010B584B0019000911446039103A8FEF7A1
:1026900093FA002817DB0D4B53F820300BB10022C2
:1026A0001A70019B0BB100221A70084B019A43F873
:1026B000202014B9002004B010BD002201A96846F2
:1026C000FEF77EFBF7E70B20F5E700BF28030010BD
:1026D0002DE9F04F99B00191002800F04E81044699
:1026E000164602F03F073A4603A901A8FEF768FB29
:1026F000054630B10DB100232360284619B0BDE86E
:10270000F08F039B0493019904A8FFF714FE05467C
:1027100018B99DF95B30002B47DB16F01C0F00F059
:102720008A80002D48D0042D41D047F00807002DA5
:1027300040F0908017F0080F00F08C800398037829
:10274000042B43D0139E3146FEF7FAF8804600F082
:10275000BBFF014606F10E00FEF742F8139B202254
:10276000DA72002213990398FEF7FDF800211398FE
:102770001C30FEF735F8039B0122DA70B8F1000F28
:1027800068D0039B5E6B0022414604A8FFF7A0F8C7
:10279000054600285ED131460398FEF7B1FA05469A
:1027A00008F1FF33039A536154E00625B5E704A806
:1027B000FFF71CFE0546B8E79DF8163013F0110F21
:1027C00047D116F0040FB2D0082543E0206021461F
:1027D0000398FEF7DAF9039B18691E2200210230E4
:1027E000FEF724F8039B18691A2200212630FEF711
:1027F0001DF8039B1A69202111711D6900F064FF07
:10280000014605F10800FDF7EBFF039B1B69012260
:1028100083F8212004A8FFF7D9FA0546D0B9A168AA
:10282000C1B100222046FFF753F80546A368013BDB
:10283000039A53610EE06DB99DF8163013F0100F36
:102840004ED116F0020F05D013F0010F02D007256C
:102850000BE007254DB917F0080F01D047F04007EE
:10286000039B5B6BA364139BE364002D7FF442AF77
:1028700003980378042B35D0139E3146FEF760F899
:10288000A06006F11C00FDF776FF20610023636164
:10289000039B2360DB88A38084F83070002184F8D8
:1028A0003110616400220023C4E90E2304F1500AB0
:1028B0004FF400725046FDF7B9FF17F0200F3FF4B8
:1028C00019AFD4E9046756EA07033FF413AFC4E92C
:1028D0000E67039BB3F80AB04FEA4B2BA16817E0D1
:1028E0000425C2E7069B2362089B23F0FF039DF8A3
:1028F000172013436362179BA3622146FEF745F935
:10290000C6E7B1F1FF3F13D0B6EB080667EB090746
:1029100085B9D8464FF00009B94508BFB34509D27B
:102920002046FEF7DEFD01460128EAD80225E8E749
:102930000125E9E72164002D7FF4DCAEC6F308022F
:10294000002313433FF4D6AEDDF80C804046FDF77C
:10295000EBFF024608B90225CDE6730A43EAC753E6
:102960001A4462640123514698F8010000F0DCFE2D
:1029700000283FF4BFAE0125BDE60925BDE62DE9DF
:10298000F04F87B004468B4615469A460023CAF896
:102990000030039005A9FEF767F90290002840F087
:1029A000EE8094F831300293002B40F0E88094F8E8
:1029B000303013F0020F00F0FC80059B1B78042BD5
:1029C00000F08A80A36BEB42C0F08680DD4383E099
:1029D00000210398FEF796FE9CE0216C0398FEF719
:1029E00091FE97E0022384F831300293C7E001237F
:1029F00084F831300293C2E00123626C04F150018B
:102A00000598407800F0A0FE30B994F8303003F01B
:102A10007F0384F830308FE0012384F83130029353
:102A2000ADE0022384F831300293A8E0616CC91B49
:102A3000414502D34FEA482830E04FF400720BEBD7
:102A4000412104F15000FDF7E8FE94F8303003F026
:102A50007F0384F83030EDE7636CBB4208D0D4E9E3
:102A60000E01D4E90423994208BF9042C0F08B8044
:102A70006764A36BC3F30803C3F50078454500D230
:102A8000A84604F15000424659461844FDF7C5FED9
:102A900094F8303063F07F0384F83030A5EB0805FC
:102AA000DAF800304344CAF80030C344D4E90E23B6
:102AB00012EB080043F1000102460B46C4E90E2365
:102AC000D4E9040117461E468B4208BF824201D258
:102AD00007460E4627616661002D63D0D4E90E23B8
:102AE000C2F30801009100210191DDE900010143D9
:102AF000BFD14FEA522949EAC35905994989013999
:102B000019EA010913D113437FF467AFA0680028C5
:102B10003FF45EAF002845D001283FF463AFB0F129
:102B2000FF3F3FF464AF2064A36803B9A06094F949
:102B30003030002BFFF660AF059E216C3046FDF76C
:102B4000F3FE074600283FF46CAF4F444FEA552888
:102B5000B5F5007F80D309EB08037289934201D950
:102B6000A2EB090843463A465946707800F0ECFD5E
:102B700000283FF45BAF012384F8313002930298C0
:102B800007B0BDE8F08F01233A4604F15001707898
:102B900000F0CAFD00283FF46BAF012384F8313008
:102BA0000293ECE794F8303043F0400384F830307F
:102BB000E5E707230293E2E770B596B0044615A94E
:102BC000FEF752F80346A0B994F8302012F0400FF7
:102BD0000FD012F0800F0FD100F076FD0646159849
:102BE0000378042B1AD0A16CFEF78AF8034600285C
:102BF00069D0184616B070BD0123626C04F1500113
:102C00001598407800F0A0FD002840F0838094F8EB
:102C1000303003F07F0384F83030DDE72046FEF7E4
:102C200047FC0346002846D0002BE2D121466846E7
:102C3000FFF704F803460028DBD1159B19690A79D0
:102C400042F020020A71E279196942F0010281F82A
:102C500021201869A1683430FDF7C2FD159B186961
:102C6000D4E904233830FDF7C5FD159B1869D4E974
:102C700004232830FDF7BEFD159B186931460C3042
:102C8000FDF7AEFD159B1A690021517518691030CA
:102C9000FDF7A6FD6846FFF799F803460028A8D17E
:102CA0001598FFF7A7FC034694F8302022F0400265
:102CB00084F830209DE74FF0FF32216C2046FEF76C
:102CC000DFFB0346B0E7E56CEB7A43F02003EB72E1
:102CD000A26829462068FDF746FE216905F11C001F
:102CE000FDF77EFD314605F11600FDF779FD002167
:102CF00005F11200FDF770FD159B0122DA701598A1
:102D0000FFF778FC034694F8302022F0400284F864
:102D100030206EE701236CE710B582B00446FFF760
:102D20004BFF034610B1184602B010BD01A9204662
:102D3000FDF79AFF03460028F5D100222260F2E752
:102D40007F2801D880B27047B0F5803F13D240F29F
:102D50005233994201D00020704700237F2B07D8BF
:102D6000064A32F81320824202D001339BB2F5E7C3
:102D70008033D8B270470020704700BFE05C001A73
:102D8000B0F5803F45D2F0B487B2B7F5805F01D28D
:102D9000204B02E0204B00E033461A88D2B1974224
:102DA00018D31E1D5B88190ADBB284B29D18AC4291
:102DB00004DB0029F0D106EB4303EEE7082909D82C
:102DC000DFE801F0050B1114171A1D202300A41AC7
:102DD00036F814703846F0BC7047BA1A02F0010396
:102DE000FF1ABFB2F6E7103FBFB2F3E7203FBFB212
:102DF000F0E7303FBFB2EDE71A3FBFB2EAE708376E
:102E0000BFB2E7E7503FBFB2E4E7A7F5E357BFB271
:102E1000E0E77047305A001A245C001A08B5034BEB
:102E20001870034B1B6803B1984708BD00000010E1
:102E3000380500100120704700B587B001900023CD
:102E4000029303930493059101A9034801F075FBD4
:102E500007B05DF804FB00BF00500C4000B583B024
:102E60008DF8070001210DF10700FFF7E5FF03B022
:102E70005DF804FB00B587B0002301930293039033
:102E80000493059101A9034801F057FB07B05DF8D1
:102E900004FB00BF00500C4000B583B000238DF848
:102EA000073001210DF10700FFF7E4FF9DF807004F
:102EB00003B05DF804FBFFFF08B5074B32221A7020
:102EC000FFF7EAFFFFF7E8FFFF2803D0024B1B786C
:102ED000002BF7D108BD00BF3605001008B5044A25
:102EE00042F20C230121D150FFF7D6FF08BD00BFED
:102EF00000400F4008B5074A42F28C230121D1500F
:102F0000FFF7DAFFFF2801D1012008BDFFF7E6FF38
:102F10000020FAE700400F4038B504460D4610F097
:102F2000800F29D1FFF7DAFFFFF7E4FFA0B32046B7
:102F3000FFF794FF280EFFF791FFC5F30740FFF757
:102F40008DFFC5F30720FFF789FFE8B2FFF786FF83
:102F5000402C1AD00120482C19D0FFF77FFF4C2CB1
:102F600017D00A24FFF798FF10F0800F03D0631EDC
:102F700013F0FF04F6D138BD00F07F040021772064
:102F8000FFF7CAFF0128CDD9F5E79520E3E78720B1
:102F9000E3E7FFF781FFE4E7FF20ECE770B50646C3
:102FA0000C46FFF789FFFF2801D0002070BD2046A6
:102FB000FFF754FFFD2C1BD00024354615F8020BFB
:102FC000FFF74CFF7078FFF749FF631E2E4613F0A2
:102FD000FF04F2D1FF20FFF741FFFF20FFF73EFF84
:102FE000FFF75AFF00F01F00052803D10120DDE79D
:102FF0000120DBE70020D9E7F8B504460E46154B63
:1030000014221A70FFF748FFFF2803D1114B1B78D9
:10301000002BF7D1FE281BD1651C01212046FFF7AC
:1030200029FFA71C01212846FFF724FFE51C0121E9
:103030003846FFF71FFF012128460434FFF71AFF27
:10304000043EE9D1FFF728FFFFF726FF0120F8BD76
:103050000020FCE735050010014B1878704700BFD1
:103060000100001070B582B05F4B1B7813F0020FA7
:1030700009D15D4B1B7813F0010F0BD15A4B187817
:10308000C0B202B070BD594800F03CFC564B1878F5
:10309000C0B2F6E7564800F035FC564B1968564862
:1030A00001F09FFA0A2424B1FFF7F6FE013CE4B2D6
:1030B000F9E7524800F026FC0320FFF7AFFE00219D
:1030C0004020FFF729FF0546012819D04C4B1C7002
:1030D000FFF704FF002C7FD0434A137803F0FE0370
:1030E0001370484B1968444801F07BFA464800F0D9
:1030F00009FC0520FFF792FE3B4B1878C0B2C0E7F1
:10310000424800F0FFFB0420FFF788FE404B64229A
:103110001A704FF4D5714820FFF7FEFE012839D10F
:10312000254607E0FFF7B8FE02AB2B4403F8040C7A
:103130000135EDB2032DF5D99DF80630012BC5D12F
:103140009DF80730AA2BC1D1314B1B7833B14FF01A
:103150008041E920FFF7E0FE0028F5D12C4B1B78D9
:10316000002BB3D000217A20FFF7D6FE054640B1F0
:10317000ACE7FFF791FE02AB2B4403F8040C0135DA
:10318000EDB2032DF5D99DF8043013F0400F21D096
:103190000C249BE70021E920FFF7BEFE012816D989
:1031A00041261B4B1B782BB100213046FFF7B4FEA4
:1031B0000028F6D1164B1B78002B87D04FF40071F6
:1031C0005020FFF7A9FE002880D12C467EE702257B
:1031D000E926E6E7042479E70E4800F093FB002097
:1031E000FFF71CFE88E700BF01000010E05D001A39
:1031F000045E001A0800001000500C402C5E001AFB
:1032000034050010040000108C5E001A5C5E001A89
:1032100035050010C45E001A38B51D4B1B7813F03D
:10322000010F21D1054614461A4B1B7813F0080FE5
:1032300000D14902012C1CD05220FFF76DFE68B965
:103240004FF400712846FFF7D7FE18B105F5007559
:10325000013CF5D100214C20FFF75EFEFFF73EFE5A
:10326000201C18BF012038BD0B4800F04BFB032089
:10327000F9E75120FFF750FE0028EFD14FF400711D
:103280002846FFF7B9FE0028E8D00024E6E700BF93
:1032900001000010340500104C5F001A70B5284B77
:1032A0001B7813F0010F2BD105460E461446244B14
:1032B0001B7813F0040F28D1224B1B7813F0080F52
:1032C00000D14E02012C25D013F0060F30D131462B
:1032D0005920FFF721FE68B9FC212846FFF75EFE62
:1032E00018B105F50075013CF6D1FD210020FFF76E
:1032F00055FE10B3FFF7F2FD201C18BF012070BD72
:10330000114800F0FFFA0320F9E7104800F0FAFA3C
:103310000220F4E731465820FFF7FEFD0028E9D1EE
:10332000FE212846FFF73AFE0028E3D00024E1E71B
:103330002146D720FFF7F0FDC9E70124DAE700BFF7
:103340000100001034050010745F001A9C5F001A21
:1033500030B585B00C46052818D0B44B1B7813F057
:10336000010F1FD10E2800F24881DFE810F0200085
:103370002B006D00740046014601460146014601DE
:103380004601D200D900E900F7000A010B78012BB1
:1033900040F24A81022B40F04081FFF74BFD607004
:1033A00000243EE1A24800F0ADFA032439E1FFF722
:1033B000A1FD002800F01D81FFF790FDFFF78EFDB5
:1033C00000242EE100214920FFF7A6FD002840F04F
:1033D0000C8110216846FFF70FFE002800F01981CC
:1033E0009DF800309B09012B22D09DF8052002F0AA
:1033F0000F029DF80A3002EBD3129DF809305B00F2
:1034000003F006031A449DF808309DF807109B0945
:1034100003EB81039DF80610890201F440610B441F
:103420000133073A93402360FFF758FD0024F8E08A
:103430009DF809309DF8082003EB02239BB201336D
:103440009BB29B022360EFE74FF400730B80FFF702
:1034500045FD0024E5E0774B1B7813F0040F21D0E5
:103460000021CD20FFF758FD002840F0B680FFF77F
:1034700013FD10216846FFF7BFFD002800F0B18062
:10348000302503E0FFF708FD013DEDB2002DF9D135
:103490009DF80A301A09102393402360FFF71EFDA0
:1034A0000024BEE000214920FFF736FD002840F04F
:1034B000AC8010216846FFF79FFD002800F089804E
:1034C0005C4B1B7813F0020F13D09DF80A305B00A1
:1034D00003F07E039DF80B2003EBD21301339DF81C
:1034E0000D209209013A93402360FFF7F7FC002476
:1034F00097E09DF80A30C3F384029DF80B10CB00CF
:1035000003F0180303EB5113013302FB0333236071
:10351000EBE7484B1B780B70FFF7E0FC002480E0E2
:1035200000214920FFF7F8FC00284ED11021204649
:10353000FFF762FD002844D1FFF7D0FC01246DE0C5
:1035400000214A20FFF7E8FCB8BB10212046FFF716
:1035500053FD70BBFFF7C2FC01245FE000217A201D
:10356000FFF7DAFC08BB042505E0FFF795FC04F83B
:10357000010B013DEDB2002DF7D1FFF7AFFC0024A8
:103580004FE00021CD20FFF7C7FC50B9FFF784FCC6
:1035900040212046FFF730FD98B3FFF79FFC002441
:1035A0003FE0FFF79BFC012438E0FFF797FC012484
:1035B00034E0FFF793FC002433E0FFF78FFC012495
:1035C0002CE0FFF78BFC00242BE0FFF787FC0124A5
:1035D00024E0FFF783FC012420E0FFF77FFC0124B7
:1035E0001CE0FFF77BFC012418E0FFF777FC0124C7
:1035F00014E0FFF773FC012410E0FFF76FFC0424D4
:103600000CE0FFF76BFC012408E0FFF767FC0124E6
:1036100004E0FFF763FC012400E00424064800F006
:1036200071F9204605B030BD0024FAE70100001012
:10363000005F001A34050010285F001A10B5134C03
:10364000204600F0EDFF636823F004036360236805
:1036500023F0FF0343F0070323600D4B1968204656
:1036600000F0BFFF636843F002036360FFF736FCBE
:10367000084A137803F0FD031370074800F042F97D
:103680000220FFF7CBFBFFF7EDFC10BD00500C4014
:103690000800001001000010C85F001A084B1B78DA
:1036A00023B1074A1378013BDBB21370054B1B783B
:1036B00023B1044A1378013BDBB21370704700BF9B
:1036C000350500103605001000B589B069460C4874
:1036D00000F06DFE079BA3F2BC70069B5B0543EAFE
:1036E0004063039843EA0043029843EAC0230198E9
:1036F00043EA4013009843EA500009B05DF804FB28
:103700000060044008B5FFF7C9FF08BD08B10120FB
:10371000704708B5FFF7A0FC08BD08B1012070474D
:1037200008B5FFF79FFC08BD51B110B553B108B102
:10373000042010BD084611461A46FFF76DFDF8E754
:10374000042070470420F4E751B110B553B108B11B
:10375000042010BD084611461A46FFF79FFDF8E702
:10376000042070470420F4E708B10420704708B52E
:1037700008461146FFF7ECFD08BDFFFF0022052AB1
:1037800019D870B40C4911F8125001EB42014C7871
:103790000A4B05F5006653F826100120A0400143AE
:1037A00043F8261003EB4513002119550132052A71
:1037B000E8D970BC704770470460001A00400F40A1
:1037C0000023032B16D830B40B4911F8132001EB5A
:1037D00043014D78094C02F5006254F82210012093
:1037E000A84021EA000144F822100133032BEBD951
:1037F00030BC7047704700BFFC5F001A00400F40AC
:103800000023082B16D830B40B4911F8132001EB14
:1038100043014D78094C02F5006254F82210012052
:10382000A84021EA000144F822100133082BEBD90B
:1038300030BC7047704700BF1060001A00400F4056
:1038400010B582B0084C6946204600F0CBF9074A13
:103850006946204600F0E6F900226946204600F05D
:10386000FAF902B010BD00BF00300E40801A060009
:1038700010B50B4C204600F0D3FE636823F0040320
:103880006360236823F0FF0343F0070323600549C7
:10389000204600F0A6FE636843F00203636010BD9B
:1038A00000500C40A086010008B5002000F0E4FEA6
:1038B000044B40F60802C3F8842C0349002000F0B2
:1038C000EDFE08BD0060084040420F0010B5074CF7
:1038D000204600F0ABF84FF4E131204600F0F0F85C
:1038E0000323E3600123E36510BD00BF00100C401B
:1038F000034B5B6913F0200FFAD0014B186070473F
:1039000000100C4010B50446207818B10134FFF7C0
:10391000EFFFF9E710BDFFFF08B5FFF7D7FF094834
:1039200000F090FDFFF76CFFFFF78AFFFFF7A0FFA5
:10393000FFF7BAFFFFF722FFFFF742FF00F064FC3A
:1039400008BD00BF00400F4008B5FFF7BFFF08BD2E
:1039500000231C2B12D810B4094A02EB830112F881
:1039600023404A78488802EB4412064941F8220075
:1039700001331C2BF0D95DF8044B7047704700BF32
:103980002C60001A0060084010B5174AD2F82031A8
:1039900023F4704343F41043C2F82031D2F82431A9
:1039A00023F4704343F41043C2F8243101220F4939
:1039B000062000F033FC00244CB10B4B5A6822F077
:1039C0000C025A605A6842F003025A6010BD08485F
:1039D00000EB840101238A78497810F8240000F074
:1039E00063FB0134E8E700BF0030044000CB280C43
:1039F0002860001A08B5FFF7ABFFFFF7C5FF08BD49
:103A0000094B984209D003F58053984207D0A3F59B
:103A10008023984205D00020704702207047032081
:103A200070470120704700BF00100C4030B583B0D4
:103A30000446FFF7E5FF01231A4619460E4D35F8F7
:103A4000100000F077FB0723A3600023E3656360A9
:103A5000E3602362E36463652365084B9C4206D000
:103A60000323E3601023A362019B03B030BD002356
:103A70002361A3690193F3E7A860001A00200840BE
:103A800038B505460C46FFF7BBFF0C4B33F810006A
:103A900000F094FB2301B0FBF3F3D9B2EA6842F0E3
:103AA0008002EA602960C3F307226A60EA6822F0B4
:103AB0008002EA60B0FBF3F0000938BDA060001A94
:103AC0002DE9F04F83B001908846FFF799FF324B04
:103AD00033F8100000F072FB06464FF0FF37012468
:103AE0004FF0000BA246D9462AE042424B1C17E099
:103AF0000AB31746AB46A24699460135AC421ED9D9
:103B000033093007A4FB000104FB0311621908FB11
:103B100002F2002301F0C2F802460B460028E4DB63
:103B20009742EAD3002BE8D0190CE6D1022BDFD85C
:103B3000002DDDD0E1E71746AB46A2469946013499
:103B40001FB10F2C01D80025D8E7B9F1000F1ED006
:103B5000019A1146D36843F08003D3605FFA89F37A
:103B60001360C9F307235360D36823F08003D36045
:103B70004FEA0A13DBB20BF00F0213438B623309D7
:103B80000AFB03F3DA4409FB0AF9B3FBF9F94846E7
:103B900003B0BDE8F08F00BFA060001A034B98424D
:103BA00001D0032070470420704700BF00400E4042
:103BB00070B50D4614461E46FFF7F0FF00F0FEFA02
:103BC00055B104FB06F404EB40006400B0FBF4F0D4
:103BD000C0B20138C0B270BD04EB840304EB4304EF
:103BE000F1E7FFFF38B505460C46FFF7D7FF012385
:103BF0001A46194600F09EFA0021E960084A226040
:103C0000217161710B232846FFF7D2FF000240F4B7
:103C100000132079400400F460201843286038BD68
:103C2000801A060070B505460E46046824F46F2419
:103C300024F470640A600B79C3F10B03DBB2497999
:103C4000FFF7B6FF44EA002033795B0403F46023F6
:103C500003432B6070BD08B50A710A68FFF7E2FFE5
:103C600008BDFFFFF0B40B6813F0800F02D023F003
:103C700040030B60074601253AE04B6903FB02F362
:103C8000B3FBF5F31CE01C46B0EB040C27D46745EE
:103C900006D98D60771CCF600A618C61CB61674665
:103CA0000132B2F5807F1DDC0C6814F0400FE4D0C7
:103CB000731C02FA03FC4B6903FB0CF3B3FBF5F333
:103CC000DFF838C06345EBD9DFF834C0634509D865
:103CD00014F0800FD7D1741C23FA04F4D4E7CCF18C
:103CE000000CD4E70136032E01DC0122D9E70135AF
:103CF000042D01DC0026F6E7F0BC7047FF5E4C099E
:103D000000D01213F0B599B005460C465C22002194
:103D100001A801F079F98023009363690593237961
:103D20008DF8043069462846FFF79CFF069BAB429E
:103D300027D0EB1A2ED41E46109B23F0400310937D
:103D40006369159323798DF8443010A92846FFF74D
:103D500089FF169BAB421FD0EB1A25D41F462B4B75
:103D60009D4223D90E9BED1A33D4AE423BDCBE42BA
:103D700031DC6D460FCD0FC495E80F0084E80F00CD
:103D800006E06D460FCD0FC495E80F0084E80F00E4
:103D900019B0F0BD5B42CEE710AD0FCD0FC495E872
:103DA0000F0084E80F00F3E75B42D7E74023089356
:103DB00063690D9308A92846FFF754FF0E9BAB4299
:103DC000D0D108AD0FCD0FC495E80F0084E80F00E7
:103DD000DEE76D42C9E710AD0FCD0FC495E80F00C7
:103DE00084E80F00D4E7AF4207DB08AD0FCD0FC466
:103DF00095E80F0084E80F00CAE710AD0FCD0FC49F
:103E000095E80F0084E80F00C2E700BF80778E06B8
:103E100030B4054600231C2000E001331C2818D1D3
:103E200003EB430251000C4A0A441479844210D037
:103E300003EB43014A0008498A5AAA42EDD803EB32
:103E400043025100044A0A445288AA42E5D320465C
:103E5000E4E730BC704700BFBC60001A82B04FF48A
:103E60007A7301930D4A936923F0020192698A42A1
:103E700001D00A4A916123F00303094A1168094AF3
:103E8000914201D943F00403044A9361019B5A1EF5
:103E90000192002BFAD102B0704700BF000005402C
:103EA0002460001AFF2C31011230054B53F820001A
:103EB00010F0010F02D1C0F3046070471120704769
:103EC0000000054000F11202034B53F82220034B7F
:103ED000185C00EA9200704700000540B460001AC8
:103EE00008B510280AD8DFE800F0440B0D182109A6
:103EF00024272A2D09093034383C400000203AE0BC
:103F00001E4838E01E4BD3F82C3103F00703042B76
:103F100001D01C482FE000202DE0194BD3F82C31A4
:103F200003F00703042B27D0164824E0164B18682B
:103F300021E0164B18681EE0154B18681BE0144B67
:103F4000586818E000F068F815E0002100F09AF8D1
:103F500011E0012100F096F80DE0022100F092F846
:103F600009E0032100F08EF805E0042100F08AF852
:103F700001E04FF4004008BD0648FCE7001BB70015
:103F80000030044040787D01F85F001A2460001A78
:103F90003C05001080F0FA0238B505460C46087959
:103FA000FFF79EFF6061194B2B44194A934221D8B9
:103FB00018B3802323600023A360E360B5FBF0F314
:103FC0002361144A954203D903FB00F0A84207D0AD
:103FD00021462846FFF796FEA3688BB1013BA360FC
:103FE000236983B1E2680AB1013AE260013B2361CF
:103FF000002038BD4FF0FF30FBE74FF0FF30F8E70F
:104000004FF0FF30F5E74FF0FF30F2E7103A6BFF6B
:104010001005940BFF5E4C0930B583B0174D6C6CE6
:10402000C4F30360FFF75CFF154B1B6801932B6C17
:1040300013F0010F20D0C4F30743C4F30132C4F3DB
:104040000121C4F38015013301320DF1080C6144E4
:1040500011F8041C14F0800F08D13DB94900B3FBDE
:10406000F1F3B0FBF2F000FB03F003E0B0FBF2F081
:1040700003FB00F003B030BD0020FBE7000005406B
:10408000B060001A38B50C460846FFF70DFF05462C
:104090002046FFF717FF04462846FFF721FF0134AB
:1040A000B0FBF4F038BDFFFF30B400F11604A400FB
:1040B00004F1804404F5A02464681B2813D8112956
:1040C0001AD00E4D25400AB145F400650BB145F0FC
:1040D000010545EA01651630800000F1804000F5D9
:1040E000A020456008E044F001041630800000F193
:1040F000804000F5A020446030BC7047FEF7FFE030
:104100001B280CD81630800000F1804000F5A0205C
:10411000406810F0010F04D1C0F304607047112013
:1041200070471120704708B5FFF7EAFFFFF7D8FE88
:1041300008BDFFFF71B901210AB141F00401022B52
:104140000AD0B0F5A17F0AD3A0F59170064B43F8D1
:10415000301070470321EFE741F02001F1E72030F4
:10416000024B43F830107047002005400010054016
:10417000B0F5A17F09D3094AA0F5917052F830300B
:1041800043F0010342F830307047054A203052F8BE
:10419000303043F0010342F83030704700200540D2
:1041A00000100540044B5A6822F00C025A605A680D
:1041B00042F003025A6070470030044010B5B0F579
:1041C000A17F09D3A0F591730D4A52F8334014F042
:1041D000010F07D1002010BD00F12003094A52F859
:1041E0003340F4E7FFF714FEFFF79DFF14F0E00FF4
:1041F00003D10123B0FBF3F0EDE70223FAE700BFA0
:10420000002005400010054008B56920FFF7D6FFE3
:10421000014B186008BD00BF9C12001070B58AB039
:1042200005460E4614464CF250330993062818D022
:104230000023012229460420FFF736FF4A4A536C27
:1042400043F0010353648DF8085001A93046FFF78D
:10425000A3FE464B9E4216D9019B13F0400F03D09C
:10426000FEE7FFF7FBFDE3E713F0800F05D023F037
:10427000800301930025012607E0049B013304938A
:104280000125002601E000252E469DF80820019B0F
:1042900043EA0263059A43EA0243039A43EA02337C
:1042A000049A43EA022343F400632F4A53642E4BDB
:1042B0001B6C13F0010FFAD0002301220921042006
:1042C000FFF7F2FE06B34CF250330993099B5A1ED6
:1042D0000992002BFAD1019B43F0800301939DF8D2
:1042E000082043EA0263059A43EA0243039A43EA39
:1042F0000233049A43EA022343F400631A4A5364E4
:10430000002C2ED10AB070BD002DF9D04CF25033E4
:104310000993099B5A1E0992002BFAD1049B5A1E3D
:1043200004929DF80810019B43EA0163059943EA52
:104330000143039943EA013343EA022343F4006350
:10434000094A5364DCE70A4800EB8401CB788A7899
:10435000497810F82400FFF7A7FE0134112CF2D998
:10436000D0E70024FAE700BF0000054080778E0602
:104370002861001A836843F002038360836813F0A6
:10438000020FFBD0836803F011038360836813F08E
:10439000020FFBD17047012904D0836803F0120398
:1043A00083607047836843F001038360704710B4F3
:1043B000FF24036AA3420DD0046A0C600123072B7B
:1043C000F7D803F1080250F8222041F823200133E6
:1043D000DBB2F4E75DF8044B7047012904D0836831
:1043E00043F0100383607047836803F00303836026
:1043F000836813F0100FF7D17047FFFF10B5044624
:10440000FFF7D0FE0E4B4FF400621A600C4B1B6896
:10441000002BFBD100212046FFF7BDFF00212046E5
:10442000FFF7DBFF2046FFF7A5FF03232360236888
:10443000002BFCD1E360FF222261236410BD00BF8A
:104440000000044070470B6833B14A689B5A836090
:104450004B6802334B6070474FF6FF738360F7E79A
:104460000B6833B14A689B5C83604B6801334B60D7
:104470007047FF238360F8E7C36813F0040F1BD075
:10448000CA680B699A4216D210B40AE0CB680233AC
:10449000CB60C36813F0040F0AD0CA680B699A4254
:1044A00006D283689BB28C68002CEFD0A352EDE754
:1044B0005DF8044B704770477047C36813F0040FF2
:1044C0001AD0CB680A69934215D210B40AE0CB68BF
:1044D0000133CB60C36813F0040F09D0CB680A69BD
:1044E000934205D284688A68002AF0D0D454EEE75B
:1044F0005DF8044B704770477047FFFF034B9842CD
:1045000001D083207047A520704700BF00500C40A9
:10451000044B984202D040F2022070474FF4F170F1
:10452000704700BF00500C40036823F47F4309022A
:1045300089B2194301600261704738B504460D46DF
:10454000E36813F0040F01D0A368F9E703232362A3
:10455000236813F0080F08D122E0A36913F0010FBC
:1045600039D129462046FFF787FFEA682B699A422E
:1045700002D36A68934226D9E26812F0020FECD0A7
:104580006A689A42E9D229462046FFF75CFFE4E7D1
:10459000A36913F0010F20D129462046FFF78DFFB4
:1045A000EA682B699A4202D36A6893420BD9E2689F
:1045B00012F0020FECD06A689A42E9D229462046EE
:1045C000FFF74EFFE4E72B680BB1686804E0AB68C7
:1045D0002BB1E86800E0002038BD0020FCE7002097
:1045E000FAE770B506460D46FFF792FFFFF7E6FDC6
:1045F00002224FF0FF33002100E02146AB420BD9ED
:104600004C1C02FB04F3B0FBF3F39D42F6D2FF2CEB
:10461000F3D902320021F1E73046FFF785FF70BD84
:1046200010B50446FFF76AFFFFF7A2FD2046FFF72B
:104630006FFFFFF79DFD636823F004036360236849
:1046400023F0FF0343F00703236002492046FFF7EE
:10465000C8FF10BDA0860100012909D1C0EBC00030
:104660008200044B13441A69137DDBB2042BFBD088
:10467000704700BF1000001070B50546064EC4001C
:10468000221A930033449888FFF772FD641BA3003D
:10469000F3586C229A6170BD100000102DE9F041B2
:1046A0000C460B4EC5002B1A4FEA830806EB080395
:1046B0009888FFF783FDB0FBF4F056F80830420805
:1046C0001A6156F808301A69801A5861BDE8F081FD
:1046D0001000001008B50B4A0B4B9A6003F50C73E1
:1046E0001B6903F47F63202B04D0FFF783F9FFF7E6
:1046F00013F908BD044AD2F8883043F47003C2F8B5
:104700008830F2E70000001A00ED00E0044B18606A
:10471000044A136843F0010313600120704700BF8F
:1047200048000010001000E030BF704710B5074C83
:104730002046FFF763FE01212046FFF72CFE40F6DE
:104740003400002100F08EFA012010BD006004400A
:1047500010B588B0044669460948FFF728FE009B5B
:10476000E371019BA371029B6371049B2371039B03
:10477000E370069BA370079B2380012008B010BD47
:104780000060044000EB40008300034AD35858699E
:1047900000F00100704700BF7061001A00EB40009C
:1047A0008300024AD3581868C0B270477061001A7B
:1047B0002DE9F84380468946194C45002A18930094
:1047C000E618E7583846FFF731F949463846FFF70B
:1047D00057F90723BB603B680123FB653079737988
:1047E000B27942F018020F4903EB401341F823203D
:1047F000F079337A727A42F0D00203EB401341F839
:104800002320B8F1010F01D0BDE8F883064AD36C2C
:1048100043F03003D3641A22C1F80823F4E700BF41
:104820007061001A006008400010084038B5054665
:104830000C46FFF7A7FF034608B9184638BD2846BF
:10484000FFF7ACFF20700123F7E7FFFF08B100205E
:10485000704770B50E4C0026C4F89067C523C4F8A5
:104860008C300523C4F890300A4D2846FFF7D8FE57
:104870006B6843F002036B60C4F80463064942F2BC
:104880000C028B5843F001038B50012070BD00BF18
:104890000060084000500C4000400F40014BD3E93D
:1048A000000170474805001030B1054A1060012032
:1048B00021B1044B196070470020F9E700207047D0
:1048C000500500104405001018B1044B07221A606F
:1048D0007047024B00221A60704700BF10E000E0F2
:1048E00038B550EA01042AD010F1FF3241F1FF330C
:1048F000002B08BF322A27D2144BC3E90001144B06
:104900001B68A3FB004503FB01554FF47A7200239B
:104910002046294600F0C2F90138B0F1807F09D263
:104920000C4B58600C4AE02182F8231000229A6058
:1049300007221A600120FFF7C7FF012038BD0020C1
:10494000FFF7C2FF0020F9E70020F7E75000001052
:104950009C12001010E000E000ED00E008B5074AEE
:1049600013685168013341F1000113605160044B39
:104970001B6813B1034A1068984708BD480500102A
:10498000500500104405001030B40B4D00EB8000C2
:104990002C182856087094F90110117094F902200F
:1049A0001A7094F90320029B1A7094F90420039B57
:1049B0001A7030BC704700BFB861001A10F1020FC6
:1049C00000F0C780B0F1FF3F00F0C58070B584B043
:1049D0000C4600238DF80F308DF80E308DF80D3019
:1049E0008DF80C308DF80B300DF10B03019303ABF8
:1049F00000930DF10D030DF10E020DF10F01FFF704
:104A0000C3FF052C00F2A980DFE804F009812745E7
:104A100063035348FFF716FD012004B070BD9DF8F5
:104A20000F109DF80E309DF80D2042F0D00203EBE0
:104A300041134C4941F823209DF80C309DF90B207F
:104A4000012000FA02F1464C03F5006354F82320DC
:104A500022EA010244F82320DFE79DF80F109DF8B9
:104A60000E309DF80D2042F0C00203EB41133D498A
:104A700041F823209DF80C309DF90B20012000FA0D
:104A800002F1374C03F5006354F8232022EA0102B7
:104A900044F82320C1E79DF80F109DF80E309DF8D3
:104AA0000D2042F0D80203EB41132E4941F8232098
:104AB0009DF80C309DF90B20012000FA02F1284CE2
:104AC00003F5006354F8232022EA010244F823206E
:104AD000A3E79DF80F109DF80E309DF80D2042F0D1
:104AE000C80203EB41131F4941F823209DF80C3005
:104AF0009DF90B20012000FA02F1194C03F5006327
:104B000054F8232022EA010244F8232085E79DF887
:104B10000F109DF80E309DF80D2042F0D00203EBEF
:104B20004113104941F823209DF80C409DF90B20BA
:104B3000012000FA02F10A4B04F5006553F82560E4
:104B4000314343F82510D2B203EB441300219954AA
:104B500063E7002070470020704700205DE700BF3A
:104B600000400F400060084010F1020F2DD0B0F15E
:104B7000FF3F2CD010B584B00C4600238DF80F30C9
:104B80008DF80E308DF80D308DF80C308DF80B301F
:104B90000DF10B03019303AB00930DF10D030DF128
:104BA0000E020DF10F01FFF7EFFE9DF80C309DF89E
:104BB0000B20211C18BF01215B0103F1402303F5E9
:104BC00070239954012004B010BD002070470020CC
:104BD0007047FFFF08B5044B1B681B68DB68034A7E
:104BE0001068984708BD00BFA012001054050010BF
:104BF00008B5FFF709FB1A4B1868FFF787FD01207E
:104C00000021FFF76DFE05210020FFF7D7FE0021F0
:104C10002420FFF7D3FE00212520FFF7CFFE00213F
:104C20002620FFF7CBFE00212720FFF7C7FE01213A
:104C30002820FFF7C3FE01212920FFF7BFFE012135
:104C40002A20FFF7BBFE01212B20FFF7B7FE012131
:104C50002C20FFF7B3FE01212D20FFF7AFFE08BD8A
:104C60009C1200102DE9F84380468946FFF716FE96
:104C700006460F46FFF712FE841B61EB0705064B45
:104C8000D3E900234046494600F008F88D4208BFAA
:104C90008442EFD3BDE8F8835000001053B94AB9FD
:104CA000002908BF00281CBF4FF0FF314FF0FF3034
:104CB00000F074B9ADF1080C6DE904CE00F006F80F
:104CC000DDF804E0DDE9022304B070472DE9F04788
:104CD000089E04468846002B40F085808A4215468F
:104CE00048D9B2FA82F24AB1C2F1200701FA02F3BE
:104CF00020FA07F7954047EA030894404FEA154E1B
:104D0000230CB8FBFEF71FFA85FC0EFB178843EA5D
:104D1000084307FB0CF1994209D9EB1807F1FF3062
:104D200080F0E380994240F2E080023F2B445B1A1E
:104D3000A4B2B3FBFEF00EFB103344EA034400FBC5
:104D40000CFCA44509D92C1900F1FF3380F0CB806D
:104D5000A44540F2C88002382C4440EA0740A4EB46
:104D60000C0400271EB1D4400023C6E90043394695
:104D7000BDE8F087002A53D0B2FA82F2002A40F050
:104D8000B680491B4FEA154E1FFA85F80127B1FB83
:104D9000FEFC230C0EFB1C1143EA014308FB0CF143
:104DA000994207D9EB180CF1FF3002D2994200F278
:104DB000EC808446591AA3B2B1FBFEF00EFB10142E
:104DC00043EA044408FB00F8A04507D92C1900F178
:104DD000FF3302D2A04500F2DC801846A4EB0804A1
:104DE00040EA0C40BEE78B4208D9002E78D000275D
:104DF000C6E9000138463946BDE8F087B3FA83F7C3
:104E00007FB98B4202D3824200F2BD80841A61EBEB
:104E1000030301209846002EA9D0C6E90048A6E762
:104E2000FFDEC7F12005BB4022FA05FC4CEA030C6B
:104E300001FA07F420FA05F821FA05F34FEA1C4EAF
:104E400048EA0404B3FBFEF9210C0EFB19331FFAE8
:104E50008CF841EA034309FB08FA9A4502FA07F283
:104E600000FA07F10BD91CEB030309F1FF3080F0C6
:104E700088809A4540F28580A9F102096344A3EB3A
:104E80000A03A4B2B3FBFEF00EFB103344EA034462
:104E900000FB08F8A04508D91CEB040400F1FF331F
:104EA0006BD2A04569D90238644440EA0940A4EBBA
:104EB0000804A0FB02894C45C6464B4654D351D04A
:104EC000002E69D0B1EB0E0264EB030404FA05F581
:104ED00022FA07F3FC401D43C6E90054002746E7C9
:104EE0003746304643E7184637E707461FE7C2F123
:104EF000200320FA03F7954001FA02F021FA03F3A8
:104F00004FEA154E3843010CB3FBFEF71FFA85F844
:104F10000EFB173341EA034107FB08F38B4204FA07
:104F200002F407D9691807F1FF3C28D28B4226D931
:104F3000023F2944CB1A81B2B3FBFEF00EFB1033C3
:104F400041EA034100FB08F38B4207D9691800F1DD
:104F5000FF3C10D28B420ED902382944C91A40EACC
:104F6000074714E74145ABD2B8EB020E69EB0C02E0
:104F700001381346A4E76046F0E7184695E7674610
:104F8000D8E781467BE7384645E7ACF1020C2B4475
:104F900010E702382C4421E73746E8E6704700BFA7
:104FA00070B50D4D0D4C641BA4100026A64209D10E
:104FB0000B4D0C4CFBF7C9FB641BA4100026A6424A
:104FC00005D170BD55F8043B98470136EEE755F81A
:104FD000043B98470136F2E73463001A3463001A41
:104FE0003463001A3863001A704770470A449142CC
:104FF00000F1FF3300D1704710B511F8014B03F8F1
:10500000014F9142F9D110BD02440346934200D1B1
:10501000704703F8011BF9E738B50546002945D06C
:1050200051F8043C0C1F002BB8BFE41800F0B2FA92
:105030001F4A1368104633B9636014602846BDE800
:10504000384000F0ADBAA3420CD9216862189342EF
:1050500004BF1A685B68636004BF52182260046072
:10506000ECE713465A680AB1A242FAD919685818EF
:10507000A0420BD120680144581882421960DDD14A
:10508000106852685A6001441960D7E702D90C23AE
:105090002B60D3E7206821188A4204BF1168526848
:1050A000626004BF091821605C60C7E738BD00BFBB
:1050B00058050010F8B5CD1C25F0030508350C2D5A
:1050C00038BF0C25002D064601DBA94203D90C236D
:1050D00033600020F8BD00F05DFA21490A681446EB
:1050E0009CB9204F3B6823B921463046FBF72EFB85
:1050F000386029463046FBF729FB431C23D10C239B
:105100003360304600F04CFAE3E723685B1B17D4AA
:105110000B2B03D923601C44256004E06368A24282
:105120000CBF0B605360304600F03AFA04F10B00FC
:10513000231D20F00700C21ACCD01B1AA350C9E7C8
:1051400022466468CCE7C41C24F00304A042E3D0E8
:10515000211A3046FBF7FAFA0130DDD1CFE700BF64
:10516000580500105C0500102DE9F04791461F46D8
:105170008A680B69DDF820809342B8BF1346C9F8EE
:10518000003091F8432006460C4612B10133C9F8AD
:1051900000302368990642BFD9F800300233C9F8BD
:1051A0000030256815F0060507D104F1190AE368F7
:1051B000D9F800209B1AAB4228DC94F843302268CF
:1051C000003318BF012392062DD404F1430239465F
:1051D0003046C047013020D02368E568D9F8002068
:1051E00003F00603042B08BFAD1AA36822690CBFA5
:1051F00025EAE57500259342C4BF9B1AED184FF0D0
:1052000000091A344D451AD1002008E00123524606
:1052100039463046C047013003D14FF0FF30BDE87A
:10522000F0870135C3E7E1185A1C302081F84300AC
:10523000224494F8451082F843100233C5E7012355
:10524000224639463046C0470130E6D009F101090F
:10525000D8E7FFFF2DE9F04306460C4601F1430075
:10526000097E85B06E29984617460C9B00F0BA80DF
:1052700024D8632939D00AD8002900F0C3805829DE
:1052800000F0918004F1420584F8421035E0642971
:1052900001D06929F6D125681A6815F0800F02F14E
:1052A00004012CD012681960002A03DA2D2352421F
:1052B00084F84330DFF8BCC10A233FE0732900F0D3
:1052C000A58008D86F2921D07029DBD1226842F04F
:1052D0002002226003E0752918D07829D2D17822E3
:1052E00084F84520DFF890C161E01A68111D19604B
:1052F000136884F8423004F14205012393E01268F8
:10530000196015F0400F18BF12B2CDE7D4F800C0F5
:105310001A681CF0800F02F104051D6001D01268AC
:1053200003E01CF0400FFAD01288DFF848C16F2963
:105330000CBF08230A23002184F843106568A56088
:10534000002DA2BF216821F0040121600AB9002DBF
:1053500046D00546B2FBF3F103FB112E93421CF835
:105360000EE005F801ED39D9082B0BD12368DA07D7
:1053700008D5236962689A42DEBF302305F8013CF4
:1053800005F1FF35401B2061CDF800803B4603AAA4
:1053900021463046FFF7E8FE013049D14FF0FF309B
:1053A00005B0BDE8F083DFF8CCC084F845101D6877
:1053B000216855F8042B1D600D060BD5CD0744BFA1
:1053C00041F0200121601AB9236823F020032360F3
:1053D0001023B0E74B0648BF92B2EFE70A46B9E7A1
:1053E0000546C1E71A68D4F800C06169151D1D6043
:1053F0001CF0800F136801D0196003E01CF0400F0F
:10540000FAD01980002323610546BDE71A68111DF3
:105410001960156862680021284600F051F808B14B
:10542000401B606063682361002384F84330ABE76E
:1054300023692A4639463046C0470130AED023683A
:105440009B0713D4E068039B9842B8BF1846A7E7B0
:1054500001234A4639463046C04701309ED00135C7
:10546000E368039A9B1AAB42F2DCEBE7002504F1F8
:105470001909F5E70063001A1163001A0EB400B5AC
:105480009CB01DAB029006906FF000410948079157
:105490000491094953F8042B05910068019302A96E
:1054A00000F006F9029B00221A701CB05DF804EBB4
:1054B00003B07047580000100802FFFFFFFFFFFF16
:1054C00001F0FF01102A2BDB10F0070F08D010F8B5
:1054D000013B013A8B422DD010F0070F42B3F6D1B9
:1054E000F0B441EA012141EA014122F007047FF0D2
:1054F00000070023F0E80256083C85EA010586EA29
:10550000010685FA47F5A3FA87F586FA47F6A5FA64
:1055100087F68EB9EED1F0BC01F0FF0102F0070270
:1055200032B110F8013B013A83EA010313B1F8D11B
:105530000020704701387047002D06BF35460338FC
:10554000073815F0010F07D1013015F4807F02BF35
:10555000013015F4C03F0130F0BC0138704700BF86
:10556000884210B501EB020302D983421C4607D8DA
:10557000421E994208D011F8014B02F8014FF8E79A
:1055800083189A1A9A4200D110BD14F8011D03F82D
:10559000011DF7E70148FFF727BD00BFA812001063
:1055A0000148FFF722BD00BFA8120010F8B507465A
:1055B00014460E4621B91146BDE8F840FFF77ABD02
:1055C00022B9FFF729FD25462846F8BD00F068F905
:1055D000A0420FD221463846FFF76CFD0546002851
:1055E000F2D031462246FFF701FD31463846FFF73B
:1055F00013FDE9E73546E7E72DE9F0478E689E425F
:1056000082460C469146984638D8B1F80CC01CF436
:10561000906F31D062692568096902EB42026F1A06
:1056200002EBD272013355103B449D4238BF1D46F8
:105630001CF4806F30D02946FFF73CFD064650B978
:105640000C23CAF80030A38943F04003A3814FF034
:10565000FF30BDE8F0873A462169FFF7C7FCA38910
:1056600023F4906343F08003A381266165613E4487
:10567000ED1B2660A5604646464500D946463246A3
:1056800049462068FFF76CFFA3689B1BA360236853
:105690001E4426600020DCE72A46FFF787FF064607
:1056A0000028E2D121695046FFF7B6FCC8E7FFFFAA
:1056B0002DE9F04F1E468B891B069DB007460D460F
:1056C00014460ED50B6963B94021FFF7F3FC28603F
:1056D000286120B90C233B604FF0FF30C9E0402324
:1056E0006B610023099320238DF82930DFF89C910A
:1056F000039630238DF82A304FF0010A23461E46C8
:1057000013F8012B0AB1252AF9D1B6EB040B0BD003
:105710005B46224629463846FFF76EFF013000F00F
:10572000A380099B5B4409933378002B00F09C8095
:1057300000234FF0FF32CDE9052301360493079390
:105740008DF853301A933446052214F8011B4F4844
:10575000FFF7B6FE049BC0B9D90644BF20228DF8DE
:1057600053201A0744BF2B228DF8532032782A2A5F
:1057700013D0079A344600200A26214611F8013B2F
:10578000303B092B4BD970B914E0A0EB09000AFAA1
:1057900000F0184304902646D5E7039A111D1268BD
:1057A0000391002A01DB079204E0524243F0020316
:1057B0000792049323782E2B0CD163782A2B33D1B4
:1057C000039B1A1D1B680392002BB8BF4FF0FF33D9
:1057D000023405932E4E217803223046FFF770FEE7
:1057E00038B14023801B03FA00F0049B03430134CB
:1057F000049314F8011B27488DF828100622FFF7A0
:105800005FFE002838D0244B13BB039B073323F0E3
:10581000070308330393099B434409936EE706FB90
:10582000023201200C46A8E70023013405931946F3
:105830000A26204610F8012B303A092A03D9002BFA
:10584000C8D00591C6E706FB012101230446F0E715
:1058500003AB00932A46114B04A93846AFF30080EE
:10586000B0F1FF3F8046D6D1AB895B063FF534AF40
:1058700009981DB0BDE8F08F03AB00932A46074B93
:1058800004A93846FFF7E6FCEAE700BF2263001AE6
:105890002863001A2C63001A00000000F955001A52
:1058A00051F8043C181F002BBCBF0B58C0187047A0
:1058B0005344433A2F4249504F4C415220253032F5
:1058C000645F253032645F253034642025303264D3
:1058D0002D253032642D253032642E63737600001E
:1058E0005344433A2F5445545241504F4C41522057
:1058F000253032645F253032645F253034642025E2
:105900003032642D253032642D253032642E63739D
:10591000760000005344433A00000000667265635D
:1059200075656E6369612C6D6F64756C6F5A2C665A
:105930006173655A2C76616C5F7265616C2C76615F
:105940006C5F696D670D0A00253034642C25303496
:10595000642C253034642C253034642C2530346498
:105960000D0A00FF435545414141414345454549E5
:10597000494941414592924F4F4F5555594F554FC7
:105980009C4F9E9F41494F55A5A5A6A7A8A9AAAB84
:10599000ACADAEAFB0B1B2B3B4414141B8B9BABB2E
:1059A000BCBDBEBFC0C1C2C3C4C54141C8C9CACBCA
:1059B000CCCDCECFD1D145454549494949D9DADB8E
:1059C000DCDD49DF4FE14F4F4F4FE6E8E8555555D5
:1059D0005959EEEFF0F1F2F3F4F5F6F7F8F9FAFBB6
:1059E000FCFDFEFF01030507090E10121416181C1A
:1059F0001EFFFFFF285A001A2C5A001AEB7690451A
:105A0000584641542020200046415400464154331A
:105A10003200FFFF222A3A3C3E3F7C7F000000001C
:105A20002B2C3B3D5B5D00FF53444300555342002C
:105A300061001A03E0001703F8000703FF000100EC
:105A400078010001300132010601390110014A01DB
:105A50002E017901060180014D004302810182017E
:105A600082018401840186018701870189018A01FD
:105A70008B018B018D018E018F01900191019101AC
:105A800093019401F60196019701980198013D0256
:105A90009B019C019D0120029F01A001A001A20188
:105AA000A201A401A401A601A701A701A901AA01BD
:105AB000AB01AC01AC01AE01AF01AF01B101B2016C
:105AC000B301B301B501B501B701B801B801BA011D
:105AD000BB01BC01BC01BE01F701C001C101C20193
